{
  "contractName": "Notary",
  "abi": [
    {
      "constant": false,
      "inputs": [
        {
          "name": "document",
          "type": "string"
        },
        {
          "name": "dni",
          "type": "string"
        }
      ],
      "name": "notarize",
      "outputs": [],
      "payable": false,
      "stateMutability": "nonpayable",
      "type": "function"
    },
    {
      "constant": true,
      "inputs": [
        {
          "name": "document",
          "type": "string"
        }
      ],
      "name": "checkDocument",
      "outputs": [
        {
          "components": [
            {
              "name": "doc",
              "type": "bytes32"
            },
            {
              "name": "time",
              "type": "uint256"
            },
            {
              "name": "exist",
              "type": "bool"
            },
            {
              "name": "user",
              "type": "string"
            }
          ],
          "name": "",
          "type": "tuple"
        }
      ],
      "payable": false,
      "stateMutability": "view",
      "type": "function"
    }
  ],
  "bytecode": "0x608060405234801561001057600080fd5b506107e2806100206000396000f3fe608060405234801561001057600080fd5b50600436106100365760003560e01c806353fb92331461003b578063e2034caa1461006b575b600080fd5b6100556004803603610050919081019061043c565b610087565b6040516100629190610655565b60405180910390f35b6100856004803603610080919081019061047d565b6100ad565b005b61008f6102d8565b600061009a836100c9565b90506100a581610141565b915050919050565b60006100b8836100c9565b90506100c4818361024a565b505050565b60006002826040516020016100de9190610633565b6040516020818303038152906040526040516100fa919061061c565b602060405180830381855afa158015610117573d6000803e3d6000fd5b5050506040513d601f19601f8201168201806040525061013a9190810190610413565b9050919050565b6101496102d8565b6101516102d8565b60008084815260200190815260200160002060405180608001604052908160008201548152602001600182015481526020016002820160009054906101000a900460ff16151515158152602001600382018054600181600116156101000203166002900480601f0160208091040260200160405190810160405280929190818152602001828054600181600116156101000203166002900480156102365780601f1061020b57610100808354040283529160200191610236565b820191906000526020600020905b81548152906001019060200180831161021957829003601f168201915b505050505081525050905080915050919050565b600180600084815260200190815260200160002060006101000a81548160ff0219169083151502179055506000806000848152602001908152602001600020905082816000018190555060018160020160006101000a81548160ff021916908315150217905550818160030190805190602001906102c9929190610305565b50428160010181905550505050565b60405180608001604052806000801916815260200160008152602001600015158152602001606081525090565b828054600181600116156101000203166002900490600052602060002090601f016020900481019282601f1061034657805160ff1916838001178555610374565b82800160010185558215610374579182015b82811115610373578251825591602001919060010190610358565b5b5090506103819190610385565b5090565b6103a791905b808211156103a357600081600090555060010161038b565b5090565b90565b6000815190506103b981610791565b92915050565b600082601f8301126103d057600080fd5b81356103e36103de826106a4565b610677565b915080825260208301602083018583830111156103ff57600080fd5b61040a83828461073e565b50505092915050565b60006020828403121561042557600080fd5b6000610433848285016103aa565b91505092915050565b60006020828403121561044e57600080fd5b600082013567ffffffffffffffff81111561046857600080fd5b610474848285016103bf565b91505092915050565b6000806040838503121561049057600080fd5b600083013567ffffffffffffffff8111156104aa57600080fd5b6104b6858286016103bf565b925050602083013567ffffffffffffffff8111156104d357600080fd5b6104df858286016103bf565b9150509250929050565b6104f28161071e565b82525050565b6105018161072a565b82525050565b6000610512826106d0565b61051c81856106f1565b935061052c81856020860161074d565b80840191505092915050565b6000610543826106e6565b61054d818561070d565b935061055d81856020860161074d565b61056681610780565b840191505092915050565b600061057c826106db565b61058681856106fc565b935061059681856020860161074d565b61059f81610780565b840191505092915050565b60006080830160008301516105c260008601826104f8565b5060208301516105d5602086018261060d565b5060408301516105e860408601826104e9565b50606083015184820360608601526106008282610571565b9150508091505092915050565b61061681610734565b82525050565b60006106288284610507565b915081905092915050565b6000602082019050818103600083015261064d8184610538565b905092915050565b6000602082019050818103600083015261066f81846105aa565b905092915050565b6000604051905081810181811067ffffffffffffffff8211171561069a57600080fd5b8060405250919050565b600067ffffffffffffffff8211156106bb57600080fd5b601f19601f8301169050602081019050919050565b600081519050919050565b600081519050919050565b600081519050919050565b600081905092915050565b600082825260208201905092915050565b600082825260208201905092915050565b60008115159050919050565b6000819050919050565b6000819050919050565b82818337600083830152505050565b60005b8381101561076b578082015181840152602081019050610750565b8381111561077a576000848401525b50505050565b6000601f19601f8301169050919050565b61079a8161072a565b81146107a557600080fd5b5056fea265627a7a72305820b9331af96df22c54f9289c14a66f7fb4a95235d05fcaaf27242cc905a737fcf46c6578706572696d656e74616cf50037",
  "source": "pragma solidity ^0.5.8;\r\npragma experimental ABIEncoderV2;\r\n\r\ncontract Notary {\r\n  struct DocumentSaved {\r\n      bytes32 doc;\r\n      uint time;\r\n      bool exist;\r\n      string user;\r\n  }\r\n\r\n  mapping(bytes32 => DocumentSaved) private documents;\r\n  mapping (bytes32 => bool) private proofs;\r\n\r\n  function storeProof(bytes32 proof, string memory dni) private {\r\n    proofs[proof] = true;\r\n    DocumentSaved storage document = documents[proof];\r\n    document.doc = proof;\r\n    document.exist = true;\r\n    document.user = dni;\r\n    document.time = block.timestamp; //conversion to normal date https://www.epochconverter.com/\r\n  }\r\n\r\n  function notarize(string memory document, string memory dni) public {\r\n    bytes32 proof = proofFor(document);\r\n    storeProof(proof, dni);\r\n  }\r\n\r\n  function proofFor(string memory document) private pure returns (bytes32) {\r\n    return sha256(abi.encode(document));\r\n  }\r\n\r\n  function checkDocument(string memory document) public view returns (DocumentSaved memory) {\r\n    bytes32 proof = proofFor(document);\r\n\r\n    return hasProof(proof);\r\n  }\r\n\r\n  function hasProof(bytes32 proof) private view returns(DocumentSaved memory) {\r\n    DocumentSaved memory doc = documents[proof];\r\n    return doc;\r\n  }\r\n\r\n}",
  "sourcePath": "C:/Users/goeng/Desktop/work/source/ethereum-training/ethereum-truffle/contracts/Notary.sol",
  "compiler": {
    "name": "solc",
    "version": "0.5.8+commit.23d335f2.Emscripten.clang"
  },
  "schemaVersion": "3.0.17",
  "updatedAt": "2019-11-12T11:17:23.003Z",
  "devdoc": {
    "methods": {}
  },
  "userdoc": {
    "methods": {}
  }
}