{
  "contractName": "Notary",
  "abi": [
    {
      "constant": false,
      "inputs": [
        {
          "name": "document",
          "type": "string"
        }
      ],
      "name": "notarize",
      "outputs": [],
      "payable": false,
      "stateMutability": "nonpayable",
      "type": "function"
    },
    {
      "constant": true,
      "inputs": [
        {
          "name": "document",
          "type": "string"
        }
      ],
      "name": "checkDocument",
      "outputs": [
        {
          "name": "",
          "type": "bool"
        }
      ],
      "payable": false,
      "stateMutability": "view",
      "type": "function"
    },
    {
      "constant": true,
      "inputs": [
        {
          "components": [
            {
              "name": "doc",
              "type": "bytes32"
            },
            {
              "name": "time",
              "type": "uint256"
            },
            {
              "name": "exist",
              "type": "bool"
            }
          ],
          "name": "doc",
          "type": "tuple"
        }
      ],
      "name": "getTime",
      "outputs": [
        {
          "name": "",
          "type": "uint256"
        }
      ],
      "payable": false,
      "stateMutability": "view",
      "type": "function"
    }
  ],
  "bytecode": "0x608060405234801561001057600080fd5b506106bf806100206000396000f3fe608060405234801561001057600080fd5b50600436106100415760003560e01c806353fb9233146100465780637183616c14610076578063ef6a8ff214610092575b600080fd5b610060600480360361005b91908101906103e1565b6100c2565b60405161006d91906104ea565b60405180910390f35b610090600480360361008b91908101906103e1565b6100e1565b005b6100ac60048036036100a79190810190610422565b61010f565b6040516100b99190610527565b60405180910390f35b6000806100ce8361011d565b90506100d981610195565b915050919050565b6100ea816100c2565b156100f4576100f5565b5b60006101008261011d565b905061010b81610216565b5050565b600081602001519050919050565b60006002826040516020016101329190610505565b60405160208183030381529060405260405161014e91906104d3565b602060405180830381855afa15801561016b573d6000803e3d6000fd5b5050506040513d601f19601f8201168201806040525061018e91908101906103b8565b9050919050565b600061019f61028a565b60008084815260200190815260200160002060405180606001604052908160008201548152602001600182015481526020016002820160009054906101000a900460ff161515151581525050905080604001511561020b576102008161010f565b506001915050610211565b60009150505b919050565b600180600083815260200190815260200160002060006101000a81548160ff0219169083151502179055506000806000838152602001908152602001600020905081816000018190555060018160020160006101000a81548160ff0219169083151502179055504281600101819055505050565b604051806060016040528060008019168152602001600081526020016000151581525090565b6000813590506102bf81610640565b92915050565b6000813590506102d481610657565b92915050565b6000815190506102e981610657565b92915050565b600082601f83011261030057600080fd5b813561031361030e8261056f565b610542565b9150808252602083016020830185838301111561032f57600080fd5b61033a8382846105ed565b50505092915050565b60006060828403121561035557600080fd5b61035f6060610542565b9050600061036f848285016102c5565b6000830152506020610383848285016103a3565b6020830152506040610397848285016102b0565b60408301525092915050565b6000813590506103b28161066e565b92915050565b6000602082840312156103ca57600080fd5b60006103d8848285016102da565b91505092915050565b6000602082840312156103f357600080fd5b600082013567ffffffffffffffff81111561040d57600080fd5b610419848285016102ef565b91505092915050565b60006060828403121561043457600080fd5b600061044284828501610343565b91505092915050565b610454816105cd565b82525050565b60006104658261059b565b61046f81856105b1565b935061047f8185602086016105fc565b80840191505092915050565b6000610496826105a6565b6104a081856105bc565b93506104b08185602086016105fc565b6104b98161062f565b840191505092915050565b6104cd816105e3565b82525050565b60006104df828461045a565b915081905092915050565b60006020820190506104ff600083018461044b565b92915050565b6000602082019050818103600083015261051f818461048b565b905092915050565b600060208201905061053c60008301846104c4565b92915050565b6000604051905081810181811067ffffffffffffffff8211171561056557600080fd5b8060405250919050565b600067ffffffffffffffff82111561058657600080fd5b601f19601f8301169050602081019050919050565b600081519050919050565b600081519050919050565b600081905092915050565b600082825260208201905092915050565b60008115159050919050565b6000819050919050565b6000819050919050565b82818337600083830152505050565b60005b8381101561061a5780820151818401526020810190506105ff565b83811115610629576000848401525b50505050565b6000601f19601f8301169050919050565b610649816105cd565b811461065457600080fd5b50565b610660816105d9565b811461066b57600080fd5b50565b610677816105e3565b811461068257600080fd5b5056fea265627a7a723058206d73ef9c90abf9423273a447a8f7b53c28a60e1af3a9d278bfdb722ab0fe60c16c6578706572696d656e74616cf50037",
  "source": "pragma solidity ^0.5.8;\r\npragma experimental ABIEncoderV2;\r\n\r\ncontract Notary {\r\n  struct DocumentSaved {\r\n      bytes32 doc;\r\n      uint time;\r\n      bool exist;\r\n      //User creator;\r\n  }\r\n\r\n  /*struct User {\r\n      string name;\r\n      string surName;\r\n  }*/\r\n\r\n  mapping(bytes32 => DocumentSaved) private documents;\r\n  mapping (bytes32 => bool) private proofs;\r\n\r\n  function storeProof(bytes32 proof) private {\r\n    proofs[proof] = true;\r\n    DocumentSaved storage document = documents[proof];\r\n    document.doc = proof;\r\n    document.exist = true;\r\n    document.time = block.timestamp;\r\n  }\r\n\r\n  function notarize(string memory document) public {\r\n    if (checkDocument(document)){\r\n      //all user data\r\n    } else {\r\n      //not all user data\r\n    }\r\n    bytes32 proof = proofFor(document);\r\n    storeProof(proof);\r\n  }\r\n\r\n  function proofFor(string memory document) private pure returns (bytes32) {\r\n    return sha256(abi.encode(document));\r\n  }\r\n\r\n  function checkDocument(string memory document) public view returns (bool) {\r\n    bytes32 proof = proofFor(document);\r\n\r\n    return hasProof(proof);\r\n  }\r\n\r\n  function hasProof(bytes32 proof) private view returns(bool) {\r\n    DocumentSaved memory doc = documents[proof];\r\n    if (doc.exist){\r\n      getTime(doc);\r\n      return true;\r\n    } else {\r\n      return false;\r\n    }\r\n  }\r\n\r\n  function getTime(DocumentSaved memory doc) public view returns(uint) {\r\n    return doc.time;\r\n  }\r\n}",
  "sourcePath": "C:/Users/goeng/Desktop/work/source/ethereum-training/ethereum-truffle/contracts/Notary.sol",
  "compiler": {
    "name": "solc",
    "version": "0.5.8+commit.23d335f2.Emscripten.clang"
  },
  "schemaVersion": "3.0.17",
  "updatedAt": "2019-11-12T10:04:02.209Z",
  "networkType": "ethereum",
  "devdoc": {
    "methods": {}
  },
  "userdoc": {
    "methods": {}
  }
}